{"abi":[{"type":"receive","stateMutability":"payable"},{"type":"function","name":"UNISWAP_V2_ROUTER","inputs":[],"outputs":[{"name":"","type":"address","internalType":"address"}],"stateMutability":"view"},{"type":"function","name":"WETH","inputs":[],"outputs":[{"name":"","type":"address","internalType":"address"}],"stateMutability":"view"},{"type":"function","name":"executeAttack","inputs":[{"name":"params","type":"tuple","internalType":"struct FlashLoanAttacker.AttackParams","components":[{"name":"target","type":"address","internalType":"address"},{"name":"borrowToken","type":"address","internalType":"address"},{"name":"borrowAmount","type":"uint256","internalType":"uint256"},{"name":"callData","type":"bytes","internalType":"bytes"}]}],"outputs":[],"stateMutability":"nonpayable"},{"type":"function","name":"receiveFlashLoan","inputs":[{"name":"","type":"address[]","internalType":"address[]"},{"name":"","type":"uint256[]","internalType":"uint256[]"},{"name":"","type":"uint256[]","internalType":"uint256[]"},{"name":"","type":"bytes","internalType":"bytes"}],"outputs":[],"stateMutability":"nonpayable"}],"bytecode":{"object":"0x608060405234801561000f575f80fd5b506106d28061001d5f395ff3fe608060405260043610610041575f3560e01c8063198ded731461004c578063a82ed9ec1461006d578063ad5c4648146100b0578063f04f2707146100d7575f80fd5b3661004857005b5f80fd5b348015610057575f80fd5b5061006b6100663660046102dc565b6100f7565b005b348015610078575f80fd5b50610094737a250d5630b4cf539739df2c5dacb4c659f2488d81565b6040516001600160a01b03909116815260200160405180910390f35b3480156100bb575f80fd5b5061009473c02aaa39b223fe8d0a0e5c4f27ead9083c756cc281565b3480156100e2575f80fd5b5061006b6100f1366004610475565b50505050565b60408051600180825281830190925273ba12222222228d8ba445958a90ad4eefc7d8ce2a915f91906020808301908036833701905050905061013f6040840160208501610575565b815f815181106101515761015161058e565b6001600160a01b0392909216602092830291909101909101526040805160018082528183019092525f918160200160208202803683370190505090508360400135815f815181106101a4576101a461058e565b6020908102919091010152604051632e1c224f60e11b81526001600160a01b03841690635c38449e906101df903090869086906004016105a2565b5f604051808303815f87803b1580156101f6575f80fd5b505af1158015610208573d5f803e3d5ffd5b505f925061021c9150506020860186610575565b6001600160a01b03165f6102336060880188610643565b60405161024192919061068d565b5f6040518083038185875af1925050503d805f811461027b576040519150601f19603f3d011682016040523d82523d5f602084013e610280565b606091505b50509050806102d55760405162461bcd60e51b815260206004820152601760248201527f41747461636b20657865637574696f6e206661696c6564000000000000000000604482015260640160405180910390fd5b5050505050565b5f602082840312156102ec575f80fd5b813567ffffffffffffffff811115610302575f80fd5b820160808185031215610313575f80fd5b9392505050565b634e487b7160e01b5f52604160045260245ffd5b604051601f8201601f1916810167ffffffffffffffff811182821017156103575761035761031a565b604052919050565b5f67ffffffffffffffff8211156103785761037861031a565b5060051b60200190565b80356001600160a01b0381168114610398575f80fd5b919050565b5f82601f8301126103ac575f80fd5b813560206103c16103bc8361035f565b61032e565b8083825260208201915060208460051b8701019350868411156103e2575f80fd5b602086015b848110156103fe57803583529183019183016103e7565b509695505050505050565b5f82601f830112610418575f80fd5b813567ffffffffffffffff8111156104325761043261031a565b610445601f8201601f191660200161032e565b818152846020838601011115610459575f80fd5b816020850160208301375f918101602001919091529392505050565b5f805f8060808587031215610488575f80fd5b843567ffffffffffffffff8082111561049f575f80fd5b818701915087601f8301126104b2575f80fd5b813560206104c26103bc8361035f565b82815260059290921b8401810191818101908b8411156104e0575f80fd5b948201945b83861015610505576104f686610382565b825294820194908201906104e5565b9850508801359250508082111561051a575f80fd5b6105268883890161039d565b9450604087013591508082111561053b575f80fd5b6105478883890161039d565b9350606087013591508082111561055c575f80fd5b5061056987828801610409565b91505092959194509250565b5f60208284031215610585575f80fd5b61031382610382565b634e487b7160e01b5f52603260045260245ffd5b6001600160a01b0384811682526080602080840182905285519184018290525f928682019290919060a0860190855b818110156105ef5785518516835294830194918301916001016105d1565b505085810360408701528651808252908201935091508086015f5b838110156106265781518552938201939082019060010161060a565b5050505082810360608401525f8152602081019695505050505050565b5f808335601e19843603018112610658575f80fd5b83018035915067ffffffffffffffff821115610672575f80fd5b602001915036819003821315610686575f80fd5b9250929050565b818382375f910190815291905056fea264697066735822122053fa253e275ce91134d61b0f3e9956b58f80d92774032b9e2e45eb014187fd8c64736f6c63430008180033","linkReferences":{}},"methodIdentifiers":{"UNISWAP_V2_ROUTER()":"a82ed9ec","WETH()":"ad5c4648","executeAttack((address,address,uint256,bytes))":"198ded73","receiveFlashLoan(address[],uint256[],uint256[],bytes)":"f04f2707"},"id":0}