{"abi":[{"type":"function","name":"flashLoan","inputs":[{"name":"recipient","type":"address","internalType":"address"},{"name":"tokens","type":"address[]","internalType":"address[]"},{"name":"amounts","type":"uint256[]","internalType":"uint256[]"},{"name":"userData","type":"bytes","internalType":"bytes"}],"outputs":[],"stateMutability":"nonpayable"},{"type":"function","name":"fund","inputs":[{"name":"token","type":"address","internalType":"address"},{"name":"amount","type":"uint256","internalType":"uint256"}],"outputs":[],"stateMutability":"nonpayable"}],"bytecode":{"object":"0x608060405234801561000f575f80fd5b5061087a8061001d5f395ff3fe608060405234801561000f575f80fd5b5060043610610034575f3560e01c80635c38449e146100385780637b1837de1461004d575b5f80fd5b61004b6100463660046105e9565b610060565b005b61004b61005b3660046106d8565b61020d565b81518351146100a85760405162461bcd60e51b815260206004820152600f60248201526e098cadccee8d040dad2e6dac2e8c6d608b1b60448201526064015b60405180910390fd5b5f8351116100e55760405162461bcd60e51b815260206004820152600a60248201526922b6b83a3c903637b0b760b11b604482015260640161009f565b5f5b835181101561014e575f83828151811061010357610103610700565b6020026020010151116101465760405162461bcd60e51b815260206004820152600b60248201526a16995c9bc8185b5bdd5b9d60aa1b604482015260640161009f565b6001016100e7565b505f5b835181101561019f5761019784828151811061016f5761016f610700565b60200260200101518685848151811061018a5761018a610700565b602002602001015161021d565b600101610151565b50836001600160a01b031663f04f270784846101ba866102fc565b856040518563ffffffff1660e01b81526004016101da9493929190610770565b5f604051808303815f87803b1580156101f1575f80fd5b505af1158015610203573d5f803e3d5ffd5b5050505050505050565b610219823330846103a2565b5050565b6040516001600160a01b038381166024830152604482018390525f919085169060640160408051601f198184030181529181526020820180516001600160e01b031663a9059cbb60e01b17905251610275919061080a565b5f604051808303815f865af19150503d805f81146102ae576040519150601f19603f3d011682016040523d82523d5f602084013e6102b3565b606091505b50509050806102f65760405162461bcd60e51b815260206004820152600f60248201526e151c985b9cd9995c8819985a5b1959608a1b604482015260640161009f565b50505050565b6060815167ffffffffffffffff811115610318576103186104a9565b604051908082528060200260200182016040528015610341578160200160208202803683370190505b5090505f5b825181101561039c57620186a083828151811061036557610365610700565b60200260200101516103779190610825565b82828151811061038957610389610700565b6020908102919091010152600101610346565b50919050565b6040516001600160a01b0384811660248301528381166044830152606482018390525f919086169060840160408051601f198184030181529181526020820180516001600160e01b03166323b872dd60e01b17905251610402919061080a565b5f604051808303815f865af19150503d805f811461043b576040519150601f19603f3d011682016040523d82523d5f602084013e610440565b606091505b50509050806104875760405162461bcd60e51b8152602060048201526013602482015272151c985b9cd9995c919c9bdb4819985a5b1959606a1b604482015260640161009f565b5050505050565b80356001600160a01b03811681146104a4575f80fd5b919050565b634e487b7160e01b5f52604160045260245ffd5b604051601f8201601f1916810167ffffffffffffffff811182821017156104e6576104e66104a9565b604052919050565b5f67ffffffffffffffff821115610507576105076104a9565b5060051b60200190565b5f82601f830112610520575f80fd5b81356020610535610530836104ee565b6104bd565b8083825260208201915060208460051b870101935086841115610556575f80fd5b602086015b84811015610572578035835291830191830161055b565b509695505050505050565b5f82601f83011261058c575f80fd5b813567ffffffffffffffff8111156105a6576105a66104a9565b6105b9601f8201601f19166020016104bd565b8181528460208386010111156105cd575f80fd5b816020850160208301375f918101602001919091529392505050565b5f805f80608085870312156105fc575f80fd5b6106058561048e565b935060208086013567ffffffffffffffff80821115610622575f80fd5b818801915088601f830112610635575f80fd5b8135610643610530826104ee565b81815260059190911b8301840190848101908b831115610661575f80fd5b938501935b82851015610686576106778561048e565b82529385019390850190610666565b97505050604088013592508083111561069d575f80fd5b6106a989848a01610511565b945060608801359250808311156106be575f80fd5b50506106cc8782880161057d565b91505092959194509250565b5f80604083850312156106e9575f80fd5b6106f28361048e565b946020939093013593505050565b634e487b7160e01b5f52603260045260245ffd5b5f815180845260208085019450602084015f5b8381101561074357815187529582019590820190600101610727565b509495945050505050565b5f5b83811015610768578181015183820152602001610750565b50505f910152565b608080825285519082018190525f9060209060a0840190828901845b828110156107b15781516001600160a01b03168452928401929084019060010161078c565b505050838103828501526107c58188610714565b905083810360408501526107d98187610714565b9050838103606085015284518082526107f78184840185890161074e565b601f01601f191601019695505050505050565b5f825161081b81846020870161074e565b9190910192915050565b5f8261083f57634e487b7160e01b5f52601260045260245ffd5b50049056fea264697066735822122064803989db9f6dc07f8713ea8c422d4403922391dad1f271a9766ce442cb25e664736f6c63430008180033","linkReferences":{}},"methodIdentifiers":{"flashLoan(address,address[],uint256[],bytes)":"5c38449e","fund(address,uint256)":"7b1837de"},"id":3}