{"abi":[{"type":"constructor","inputs":[{"name":"_name","type":"string","internalType":"string"},{"name":"_symbol","type":"string","internalType":"string"},{"name":"_decimals","type":"uint8","internalType":"uint8"}],"stateMutability":"nonpayable"},{"type":"function","name":"allowance","inputs":[{"name":"","type":"address","internalType":"address"},{"name":"","type":"address","internalType":"address"}],"outputs":[{"name":"","type":"uint256","internalType":"uint256"}],"stateMutability":"view"},{"type":"function","name":"approve","inputs":[{"name":"spender","type":"address","internalType":"address"},{"name":"amount","type":"uint256","internalType":"uint256"}],"outputs":[{"name":"","type":"bool","internalType":"bool"}],"stateMutability":"nonpayable"},{"type":"function","name":"balanceOf","inputs":[{"name":"","type":"address","internalType":"address"}],"outputs":[{"name":"","type":"uint256","internalType":"uint256"}],"stateMutability":"view"},{"type":"function","name":"decimals","inputs":[],"outputs":[{"name":"","type":"uint8","internalType":"uint8"}],"stateMutability":"view"},{"type":"function","name":"mint","inputs":[{"name":"to","type":"address","internalType":"address"},{"name":"amount","type":"uint256","internalType":"uint256"}],"outputs":[],"stateMutability":"nonpayable"},{"type":"function","name":"name","inputs":[],"outputs":[{"name":"","type":"string","internalType":"string"}],"stateMutability":"view"},{"type":"function","name":"symbol","inputs":[],"outputs":[{"name":"","type":"string","internalType":"string"}],"stateMutability":"view"},{"type":"function","name":"totalSupply_","inputs":[],"outputs":[{"name":"","type":"uint256","internalType":"uint256"}],"stateMutability":"view"},{"type":"function","name":"transfer","inputs":[{"name":"to","type":"address","internalType":"address"},{"name":"amount","type":"uint256","internalType":"uint256"}],"outputs":[{"name":"","type":"bool","internalType":"bool"}],"stateMutability":"nonpayable"},{"type":"function","name":"transferFrom","inputs":[{"name":"from","type":"address","internalType":"address"},{"name":"to","type":"address","internalType":"address"},{"name":"amount","type":"uint256","internalType":"uint256"}],"outputs":[{"name":"","type":"bool","internalType":"bool"}],"stateMutability":"nonpayable"}],"bytecode":{"object":"0x608060405234801562000010575f80fd5b506040516200098b3803806200098b83398101604081905262000033916200012e565b5f62000040848262000237565b5060016200004f838262000237565b506002805460ff191660ff9290921691909117905550620003039050565b634e487b7160e01b5f52604160045260245ffd5b5f82601f83011262000091575f80fd5b81516001600160401b0380821115620000ae57620000ae6200006d565b604051601f8301601f19908116603f01168101908282118183101715620000d957620000d96200006d565b8160405283815260209250866020858801011115620000f6575f80fd5b5f91505b83821015620001195785820183015181830184015290820190620000fa565b5f602085830101528094505050505092915050565b5f805f6060848603121562000141575f80fd5b83516001600160401b038082111562000158575f80fd5b620001668783880162000081565b945060208601519150808211156200017c575f80fd5b506200018b8682870162000081565b925050604084015160ff81168114620001a2575f80fd5b809150509250925092565b600181811c90821680620001c257607f821691505b602082108103620001e157634e487b7160e01b5f52602260045260245ffd5b50919050565b601f8211156200023257805f5260205f20601f840160051c810160208510156200020e5750805b601f840160051c820191505b818110156200022f575f81556001016200021a565b50505b505050565b81516001600160401b038111156200025357620002536200006d565b6200026b81620002648454620001ad565b84620001e7565b602080601f831160018114620002a1575f8415620002895750858301515b5f19600386901b1c1916600185901b178555620002fb565b5f85815260208120601f198616915b82811015620002d157888601518255948401946001909101908401620002b0565b5085821015620002ef57878501515f19600388901b60f8161c191681555b505060018460011b0185555b505050505050565b61067a80620003115f395ff3fe608060405234801561000f575f80fd5b506004361061009b575f3560e01c806340c10f191161006357806340c10f191461012957806370a082311461013e57806395d89b411461015d578063a9059cbb14610165578063dd62ed3e14610178575f80fd5b806306fdde031461009f578063095ea7b3146100bd57806323b872dd146100e0578063313ce567146100f3578063324536eb14610112575b5f80fd5b6100a76101a2565b6040516100b491906104b9565b60405180910390f35b6100d06100cb366004610520565b61022d565b60405190151581526020016100b4565b6100d06100ee366004610548565b61025b565b6002546101009060ff1681565b60405160ff90911681526020016100b4565b61011b60035481565b6040519081526020016100b4565b61013c610137366004610520565b6103b7565b005b61011b61014c366004610581565b60046020525f908152604090205481565b6100a76103ff565b6100d0610173366004610520565b61040c565b61011b6101863660046105a1565b600560209081525f928352604080842090915290825290205481565b5f80546101ae906105d2565b80601f01602080910402602001604051908101604052809291908181526020018280546101da906105d2565b80156102255780601f106101fc57610100808354040283529160200191610225565b820191905f5260205f20905b81548152906001019060200180831161020857829003601f168201915b505050505081565b335f9081526005602090815260408083206001600160a01b0386168452909152902081905560015b92915050565b6001600160a01b0383165f908152600460205260408120548211156102be5760405162461bcd60e51b8152602060048201526014602482015273496e73756666696369656e742062616c616e636560601b60448201526064015b60405180910390fd5b6001600160a01b0384165f81815260056020908152604080832033808552925290912054911461035457828110156103265760405162461bcd60e51b815260206004820152600b60248201526a139bdd08185b1b1bddd95960aa1b60448201526064016102b5565b610330838261061e565b6001600160a01b0386165f9081526005602090815260408083203384529091529020555b6001600160a01b0385165f908152600460205260408120805485929061037b90849061061e565b90915550506001600160a01b0384165f90815260046020526040812080548592906103a7908490610631565b9091555060019695505050505050565b6001600160a01b0382165f90815260046020526040812080548392906103de908490610631565b925050819055508060035f8282546103f69190610631565b90915550505050565b600180546101ae906105d2565b335f908152600460205260408120548211156104615760405162461bcd60e51b8152602060048201526014602482015273496e73756666696369656e742062616c616e636560601b60448201526064016102b5565b335f908152600460205260408120805484929061047f90849061061e565b90915550506001600160a01b0383165f90815260046020526040812080548492906104ab908490610631565b909155506001949350505050565b5f602080835283518060208501525f5b818110156104e5578581018301518582016040015282016104c9565b505f604082860101526040601f19601f8301168501019250505092915050565b80356001600160a01b038116811461051b575f80fd5b919050565b5f8060408385031215610531575f80fd5b61053a83610505565b946020939093013593505050565b5f805f6060848603121561055a575f80fd5b61056384610505565b925061057160208501610505565b9150604084013590509250925092565b5f60208284031215610591575f80fd5b61059a82610505565b9392505050565b5f80604083850312156105b2575f80fd5b6105bb83610505565b91506105c960208401610505565b90509250929050565b600181811c908216806105e657607f821691505b60208210810361060457634e487b7160e01b5f52602260045260245ffd5b50919050565b634e487b7160e01b5f52601160045260245ffd5b818103818111156102555761025561060a565b808201808211156102555761025561060a56fea264697066735822122040eaf5e02994f003b66ffda57dba2700014d791f3c2b015dae304198572aa8db64736f6c63430008180033","linkReferences":{}},"methodIdentifiers":{"allowance(address,address)":"dd62ed3e","approve(address,uint256)":"095ea7b3","balanceOf(address)":"70a08231","decimals()":"313ce567","mint(address,uint256)":"40c10f19","name()":"06fdde03","symbol()":"95d89b41","totalSupply_()":"324536eb","transfer(address,uint256)":"a9059cbb","transferFrom(address,address,uint256)":"23b872dd"},"id":4}