{"abi":[{"type":"function","name":"addLiquidity","inputs":[{"name":"tokenA","type":"address","internalType":"address"},{"name":"tokenB","type":"address","internalType":"address"},{"name":"amountADesired","type":"uint256","internalType":"uint256"},{"name":"amountBDesired","type":"uint256","internalType":"uint256"},{"name":"","type":"uint256","internalType":"uint256"},{"name":"","type":"uint256","internalType":"uint256"},{"name":"to","type":"address","internalType":"address"}],"outputs":[{"name":"","type":"uint256","internalType":"uint256"},{"name":"","type":"uint256","internalType":"uint256"}],"stateMutability":"nonpayable"},{"type":"function","name":"swapExactTokensForTokens","inputs":[{"name":"amountIn","type":"uint256","internalType":"uint256"},{"name":"","type":"uint256","internalType":"uint256"},{"name":"path","type":"address[]","internalType":"address[]"},{"name":"to","type":"address","internalType":"address"}],"outputs":[{"name":"amounts","type":"uint256[]","internalType":"uint256[]"}],"stateMutability":"nonpayable"}],"bytecode":{"object":"0x608060405234801561000f575f80fd5b506106738061001d5f395ff3fe608060405234801561000f575f80fd5b5060043610610034575f3560e01c8063472b43f314610038578063ca3d653914610061575b5f80fd5b61004b610046366004610426565b610089565b60405161005891906104b8565b60405180910390f35b61007461006f3660046104fb565b6102c2565b60408051928352602083019190915201610058565b606060028310156100cf5760405162461bcd60e51b815260206004820152600c60248201526b092dcecc2d8d2c840e0c2e8d60a31b604482015260640160405180910390fd5b8267ffffffffffffffff8111156100e8576100e8610560565b604051908082528060200260200182016040528015610111578160200160208202803683370190505b50905085815f8151811061012757610127610574565b60200260200101818152505083835f81811061014557610145610574565b905060200201602081019061015a9190610588565b6040516323b872dd60e01b8152336004820152306024820152604481018890526001600160a01b0391909116906323b872dd906064016020604051808303815f875af11580156101ac573d5f803e3d5ffd5b505050506040513d601f19601f820116820180604052508101906101d091906105a8565b505f6101e087620f4240806103bf565b905084846101ef6001826105db565b8181106101fe576101fe610574565b90506020020160208101906102139190610588565b60405163a9059cbb60e01b81526001600160a01b03858116600483015260248201849052919091169063a9059cbb906044016020604051808303815f875af1158015610261573d5f803e3d5ffd5b505050506040513d601f19601f8201168201806040525081019061028591906105a8565b5060015b848110156102b757818382815181106102a4576102a4610574565b6020908102919091010152600101610289565b505095945050505050565b6040516323b872dd60e01b8152336004820152306024820152604481018690525f9081906001600160a01b038a16906323b872dd906064016020604051808303815f875af1158015610316573d5f803e3d5ffd5b505050506040513d601f19601f8201168201806040525081019061033a91906105a8565b506040516323b872dd60e01b8152336004820152306024820152604481018790526001600160a01b038916906323b872dd906064016020604051808303815f875af115801561038b573d5f803e3d5ffd5b505050506040513d601f19601f820116820180604052508101906103af91906105a8565b5095989497509395505050505050565b5f806103cd856103e56105f4565b90505f6103da84836105f4565b90505f826103ea876103e86105f4565b6103f4919061060b565b9050610400818361061e565b979650505050505050565b80356001600160a01b0381168114610421575f80fd5b919050565b5f805f805f6080868803121561043a575f80fd5b8535945060208601359350604086013567ffffffffffffffff8082111561045f575f80fd5b818801915088601f830112610472575f80fd5b813581811115610480575f80fd5b8960208260051b8501011115610494575f80fd5b6020830195508094505050506104ac6060870161040b565b90509295509295909350565b602080825282518282018190525f9190848201906040850190845b818110156104ef578351835292840192918401916001016104d3565b50909695505050505050565b5f805f805f805f60e0888a031215610511575f80fd5b61051a8861040b565b96506105286020890161040b565b955060408801359450606088013593506080880135925060a0880135915061055260c0890161040b565b905092959891949750929550565b634e487b7160e01b5f52604160045260245ffd5b634e487b7160e01b5f52603260045260245ffd5b5f60208284031215610598575f80fd5b6105a18261040b565b9392505050565b5f602082840312156105b8575f80fd5b815180151581146105a1575f80fd5b634e487b7160e01b5f52601160045260245ffd5b818103818111156105ee576105ee6105c7565b92915050565b80820281158282048414176105ee576105ee6105c7565b808201808211156105ee576105ee6105c7565b5f8261063857634e487b7160e01b5f52601260045260245ffd5b50049056fea2646970667358221220315fc4d2644bd541b814c81fc623287552c6f61a4967a726b67667979edc3dcd64736f6c63430008180033","linkReferences":{}},"methodIdentifiers":{"addLiquidity(address,address,uint256,uint256,uint256,uint256,address)":"ca3d6539","swapExactTokensForTokens(uint256,uint256,address[],address)":"472b43f3"},"id":4}