{"abi":[{"type":"function","name":"FEE","inputs":[],"outputs":[{"name":"","type":"uint256","internalType":"uint256"}],"stateMutability":"view"},{"type":"function","name":"MINIMUM_LIQUIDITY","inputs":[],"outputs":[{"name":"","type":"uint256","internalType":"uint256"}],"stateMutability":"view"},{"type":"function","name":"balanceOf","inputs":[{"name":"","type":"address","internalType":"address"}],"outputs":[{"name":"","type":"uint256","internalType":"uint256"}],"stateMutability":"view"},{"type":"function","name":"burn","inputs":[{"name":"to","type":"address","internalType":"address"}],"outputs":[{"name":"amount0","type":"uint256","internalType":"uint256"},{"name":"amount1","type":"uint256","internalType":"uint256"}],"stateMutability":"nonpayable"},{"type":"function","name":"getReserves","inputs":[],"outputs":[{"name":"r0","type":"uint112","internalType":"uint112"},{"name":"r1","type":"uint112","internalType":"uint112"},{"name":"last","type":"uint32","internalType":"uint32"}],"stateMutability":"view"},{"type":"function","name":"initialize","inputs":[{"name":"__token0","type":"address","internalType":"address"},{"name":"__token1","type":"address","internalType":"address"}],"outputs":[],"stateMutability":"nonpayable"},{"type":"function","name":"mint","inputs":[{"name":"to","type":"address","internalType":"address"}],"outputs":[{"name":"liquidity","type":"uint256","internalType":"uint256"}],"stateMutability":"nonpayable"},{"type":"function","name":"swap","inputs":[{"name":"amount0Out","type":"uint256","internalType":"uint256"},{"name":"amount1Out","type":"uint256","internalType":"uint256"},{"name":"to","type":"address","internalType":"address"},{"name":"data","type":"bytes","internalType":"bytes"}],"outputs":[],"stateMutability":"nonpayable"},{"type":"function","name":"token0","inputs":[],"outputs":[{"name":"","type":"address","internalType":"address"}],"stateMutability":"view"},{"type":"function","name":"token1","inputs":[],"outputs":[{"name":"","type":"address","internalType":"address"}],"stateMutability":"view"},{"type":"function","name":"totalLP","inputs":[],"outputs":[{"name":"","type":"uint256","internalType":"uint256"}],"stateMutability":"view"},{"type":"event","name":"Burn","inputs":[{"name":"sender","type":"address","indexed":true,"internalType":"address"},{"name":"amount0","type":"uint256","indexed":false,"internalType":"uint256"},{"name":"amount1","type":"uint256","indexed":false,"internalType":"uint256"},{"name":"to","type":"address","indexed":false,"internalType":"address"}],"anonymous":false},{"type":"event","name":"Mint","inputs":[{"name":"sender","type":"address","indexed":true,"internalType":"address"},{"name":"amount0","type":"uint256","indexed":false,"internalType":"uint256"},{"name":"amount1","type":"uint256","indexed":false,"internalType":"uint256"}],"anonymous":false},{"type":"event","name":"Swap","inputs":[{"name":"sender","type":"address","indexed":true,"internalType":"address"},{"name":"amount0Out","type":"uint256","indexed":false,"internalType":"uint256"},{"name":"amount1Out","type":"uint256","indexed":false,"internalType":"uint256"},{"name":"to","type":"address","indexed":true,"internalType":"address"}],"anonymous":false},{"type":"event","name":"Sync","inputs":[{"name":"reserve0","type":"uint112","indexed":false,"internalType":"uint112"},{"name":"reserve1","type":"uint112","indexed":false,"internalType":"uint112"}],"anonymous":false}],"bytecode":{"object":"0x608060405234801561000f575f80fd5b506110e38061001d5f395ff3fe608060405234801561000f575f80fd5b50600436106100a6575f3560e01c80636a6278421161006e5780636a6278421461014757806370a082311461015a57806389afcb4414610179578063ba9a7a56146101a1578063c57981b5146101aa578063d21220a7146101b2575f80fd5b8063022c0d9f146100aa5780630902f1ac146100bf5780630dfe1681146100f8578063132c4feb14610122578063485cc95514610134575b5f80fd5b6100bd6100b8366004610ed9565b6101c5565b005b6100c7610602565b604080516001600160701b03948516815293909216602084015263ffffffff16908201526060015b60405180910390f35b5f5461010a906001600160a01b031681565b6040516001600160a01b0390911681526020016100ef565b6004545b6040519081526020016100ef565b6100bd610142366004610f65565b61062c565b610126610155366004610f96565b6106c4565b610126610168366004610f96565b60036020525f908152604090205481565b61018c610187366004610f96565b610914565b604080519283526020830191909152016100ef565b6101266103e881565b610126600381565b60015461010a906001600160a01b031681565b5f8511806101d257505f84115b6102235760405162461bcd60e51b815260206004820152601a60248201527f496e73756666696369656e74206f757470757420616d6f756e7400000000000060448201526064015b60405180910390fd5b5f8061022d610602565b5091509150816001600160701b0316871080156102525750806001600160701b031686105b6102965760405162461bcd60e51b8152602060048201526015602482015274496e73756666696369656e7420726573657276657360581b604482015260640161021a565b86156102b2575f546102b2906001600160a01b03168689610bf3565b85156102cf576001546102cf906001600160a01b03168688610bf3565b8215610337576040516304347a1760e21b81526001600160a01b038616906310d1e85c906103099033908b908b908a908a90600401610faf565b5f604051808303815f87803b158015610320575f80fd5b505af1158015610332573d5f803e3d5ffd5b505050505b5f80546040516370a0823160e01b81523060048201526001600160a01b03909116906370a0823190602401602060405180830381865afa15801561037d573d5f803e3d5ffd5b505050506040513d601f19601f820116820180604052508101906103a19190610ffa565b6001546040516370a0823160e01b81523060048201529192505f916001600160a01b03909116906370a0823190602401602060405180830381865afa1580156103ec573d5f803e3d5ffd5b505050506040513d601f19601f820116820180604052508101906104109190610ffa565b90505f6104268a6001600160701b038716611025565b8311610432575f61044f565b6104458a6001600160701b038716611025565b61044f9084611025565b90505f6104658a6001600160701b038716611025565b8311610471575f61048e565b6104848a6001600160701b038716611025565b61048e9084611025565b90505f82118061049d57505f81115b6104e95760405162461bcd60e51b815260206004820152601960248201527f496e73756666696369656e7420696e70757420616d6f756e7400000000000000604482015260640161021a565b5f6104f5600384611038565b610501866103e8611038565b61050b9190611025565b90505f610519600384611038565b610525866103e8611038565b61052f9190611025565b90506105476001600160701b03808916908a16611038565b61055490620f4240611038565b61055e8284611038565b10156105a35760405162461bcd60e51b815260206004820152601460248201527312c81a5b9d985c9a585b9d081d9a5bdb185d195960621b604482015260640161021a565b6105ad8686610cd2565b604080518e8152602081018e90526001600160a01b038d169133917f2a9237ff5aa599ef4c5ee4b1142b53429d5755e2685fe6288b2e3320202115f5910160405180910390a350505050505050505050505050565b6002546001600160701b0380821692600160701b830490911691600160e01b900463ffffffff1690565b6002546001600160701b03161580156106555750600254600160701b90046001600160701b0316155b6106975760405162461bcd60e51b8152602060048201526013602482015272105b1c9958591e481a5b9a5d1a585b1a5e9959606a1b604482015260640161021a565b5f80546001600160a01b039384166001600160a01b03199182161790915560018054929093169116179055565b5f805f6106cf610602565b505f80546040516370a0823160e01b8152306004820152939550919350916001600160a01b03909116906370a0823190602401602060405180830381865afa15801561071d573d5f803e3d5ffd5b505050506040513d601f19601f820116820180604052508101906107419190610ffa565b6001546040516370a0823160e01b81523060048201529192505f916001600160a01b03909116906370a0823190602401602060405180830381865afa15801561078c573d5f803e3d5ffd5b505050506040513d601f19601f820116820180604052508101906107b09190610ffa565b90505f6107c66001600160701b03861684611025565b90505f6107dc6001600160701b03861684611025565b90505f6107e860045490565b9050805f03610823576103e86108066108018486611038565b610dbb565b6108109190611025565b975061081e5f6103e8610e1e565b61086a565b6108676001600160701b03881661083a8386611038565b610844919061104f565b6001600160701b0388166108588486611038565b610862919061104f565b610e66565b97505b5f88116108b95760405162461bcd60e51b815260206004820152601d60248201527f496e73756666696369656e74206c6971756964697479206d696e746564000000604482015260640161021a565b6108c38989610e1e565b6108cd8585610cd2565b60408051848152602081018490525f917f4c209b5fc8ad50758f13e2e1088ba56a560dff690a1c6fef26394f4c03821c4f910160405180910390a250505050505050919050565b305f9081526005602052604081205481908161092f60045490565b5f546040516370a0823160e01b815230600482015291925082916001600160a01b03909116906370a0823190602401602060405180830381865afa158015610979573d5f803e3d5ffd5b505050506040513d601f19601f8201168201806040525081019061099d9190610ffa565b6109a79084611038565b6109b1919061104f565b6001546040516370a0823160e01b815230600482015291955082916001600160a01b03909116906370a0823190602401602060405180830381865afa1580156109fc573d5f803e3d5ffd5b505050506040513d601f19601f82011682018060405250810190610a209190610ffa565b610a2a9084611038565b610a34919061104f565b92505f84118015610a4457505f83115b610a905760405162461bcd60e51b815260206004820152601d60248201527f496e73756666696369656e74206c6971756964697479206275726e6564000000604482015260640161021a565b610a9a3083610e7f565b5f54610ab0906001600160a01b03168686610bf3565b600154610ac7906001600160a01b03168685610bf3565b5f546040516370a0823160e01b8152306004820152610ba1916001600160a01b0316906370a0823190602401602060405180830381865afa158015610b0e573d5f803e3d5ffd5b505050506040513d601f19601f82011682018060405250810190610b329190610ffa565b6001546040516370a0823160e01b81523060048201526001600160a01b03909116906370a0823190602401602060405180830381865afa158015610b78573d5f803e3d5ffd5b505050506040513d601f19601f82011682018060405250810190610b9c9190610ffa565b610cd2565b60408051858152602081018590526001600160a01b0387168183015290515f917fdccd412f0b1252819cb1fd330b93224ca42612892bb3f4f789976e6d81936496919081900360600190a25050915091565b6040516001600160a01b038381166024830152604482018390525f919085169060640160408051601f198184030181529181526020820180516001600160e01b031663a9059cbb60e01b17905251610c4b919061106e565b5f604051808303815f865af19150503d805f8114610c84576040519150601f19603f3d011682016040523d82523d5f602084013e610c89565b606091505b5050905080610ccc5760405162461bcd60e51b815260206004820152600f60248201526e151c985b9cd9995c8819985a5b1959608a1b604482015260640161021a565b50505050565b6001600160701b038211801590610cf057506001600160701b038111155b610d275760405162461bcd60e51b81526020600482015260086024820152674f766572666c6f7760c01b604482015260640161021a565b6002805463ffffffff4216600160e01b026001600160e01b036001600160701b03858116600160701b9081026001600160e01b03199095168883161794909417918216831794859055604080519382169282169290921783529290930490911660208201527f1c411e9a96e071241c2f21f7726b17ae89e3cab4c78be50e062b03a9fffbbad1910160405180910390a15050565b5f815f03610dca57505f919050565b5f6002610dd884600161109a565b610de2919061104f565b90505b82811015610e17579150816002610dfc828061104f565b610e06908561109a565b610e10919061104f565b9050610de5565b5090919050565b6001600160a01b0382165f9081526005602052604081208054839290610e4590849061109a565b925050819055508060045f828254610e5d919061109a565b90915550505050565b5f818310610e745781610e76565b825b90505b92915050565b6001600160a01b0382165f9081526005602052604081208054839290610ea6908490611025565b925050819055508060045f828254610e5d9190611025565b80356001600160a01b0381168114610ed4575f80fd5b919050565b5f805f805f60808688031215610eed575f80fd5b8535945060208601359350610f0460408701610ebe565b9250606086013567ffffffffffffffff80821115610f20575f80fd5b818801915088601f830112610f33575f80fd5b813581811115610f41575f80fd5b896020828501011115610f52575f80fd5b9699959850939650602001949392505050565b5f8060408385031215610f76575f80fd5b610f7f83610ebe565b9150610f8d60208401610ebe565b90509250929050565b5f60208284031215610fa6575f80fd5b610e7682610ebe565b60018060a01b038616815284602082015283604082015260806060820152816080820152818360a08301375f81830160a090810191909152601f909201601f19160101949350505050565b5f6020828403121561100a575f80fd5b5051919050565b634e487b7160e01b5f52601160045260245ffd5b81810381811115610e7957610e79611011565b8082028115828204841417610e7957610e79611011565b5f8261106957634e487b7160e01b5f52601260045260245ffd5b500490565b5f82515f5b8181101561108d5760208186018101518583015201611073565b505f920191825250919050565b80820180821115610e7957610e7961101156fea2646970667358221220db662d78dc02f9afe084541e6713885dd8ee6d7ac4183abac64e9f31115b932564736f6c63430008180033","linkReferences":{}},"methodIdentifiers":{"FEE()":"c57981b5","MINIMUM_LIQUIDITY()":"ba9a7a56","balanceOf(address)":"70a08231","burn(address)":"89afcb44","getReserves()":"0902f1ac","initialize(address,address)":"485cc955","mint(address)":"6a627842","swap(uint256,uint256,address,bytes)":"022c0d9f","token0()":"0dfe1681","token1()":"d21220a7","totalLP()":"132c4feb"},"id":4}