{"abi":[{"type":"constructor","inputs":[],"stateMutability":"nonpayable"},{"type":"receive","stateMutability":"payable"},{"type":"function","name":"LIQUIDATION_BONUS","inputs":[],"outputs":[{"name":"","type":"uint256","internalType":"uint256"}],"stateMutability":"view"},{"type":"function","name":"LIQUIDATION_THRESHOLD","inputs":[],"outputs":[{"name":"","type":"uint256","internalType":"uint256"}],"stateMutability":"view"},{"type":"function","name":"balanceOf","inputs":[{"name":"","type":"address","internalType":"address"}],"outputs":[{"name":"","type":"uint256","internalType":"uint256"}],"stateMutability":"view"},{"type":"function","name":"getPrice","inputs":[{"name":"asset","type":"address","internalType":"address"}],"outputs":[{"name":"","type":"uint256","internalType":"uint256"}],"stateMutability":"view"},{"type":"function","name":"liquidate","inputs":[{"name":"victim","type":"address","internalType":"address"}],"outputs":[{"name":"seized","type":"uint256","internalType":"uint256"}],"stateMutability":"nonpayable"},{"type":"function","name":"manipulateOracle","inputs":[{"name":"asset","type":"address","internalType":"address"},{"name":"inflationFactor","type":"uint256","internalType":"uint256"}],"outputs":[],"stateMutability":"nonpayable"},{"type":"function","name":"owner","inputs":[],"outputs":[{"name":"","type":"address","internalType":"address"}],"stateMutability":"view"},{"type":"function","name":"positions","inputs":[{"name":"","type":"address","internalType":"address"}],"outputs":[{"name":"collateralAsset","type":"address","internalType":"address"},{"name":"borrowAsset","type":"address","internalType":"address"},{"name":"collateralAmount","type":"uint256","internalType":"uint256"},{"name":"borrowAmount","type":"uint256","internalType":"uint256"},{"name":"healthFactor","type":"uint256","internalType":"uint256"}],"stateMutability":"view"},{"type":"function","name":"prices","inputs":[{"name":"","type":"address","internalType":"address"}],"outputs":[{"name":"","type":"uint256","internalType":"uint256"}],"stateMutability":"view"},{"type":"function","name":"restoreOracle","inputs":[{"name":"asset","type":"address","internalType":"address"},{"name":"originalPrice","type":"uint256","internalType":"uint256"}],"outputs":[],"stateMutability":"nonpayable"},{"type":"function","name":"setPrice","inputs":[{"name":"asset","type":"address","internalType":"address"},{"name":"price","type":"uint256","internalType":"uint256"}],"outputs":[],"stateMutability":"nonpayable"},{"type":"function","name":"setupVictim","inputs":[{"name":"collateralAsset","type":"address","internalType":"address"},{"name":"borrowAsset","type":"address","internalType":"address"},{"name":"collateralAmount","type":"uint256","internalType":"uint256"},{"name":"borrowAmount","type":"uint256","internalType":"uint256"}],"outputs":[],"stateMutability":"nonpayable"},{"type":"event","name":"Liquidated","inputs":[{"name":"victim","type":"address","indexed":true,"internalType":"address"},{"name":"attacker","type":"address","indexed":true,"internalType":"address"},{"name":"seizedAmount","type":"uint256","indexed":false,"internalType":"uint256"},{"name":"asset","type":"address","indexed":false,"internalType":"address"}],"anonymous":false}],"bytecode":{"object":"0x608060405234801561000f575f80fd5b50600180546001600160a01b031916331790556109018061002f5f395ff3fe6080604052600436106100a7575f3560e01c806370a082311161006257806370a08231146101de5780638da5cb5b1461020957806390a8ae9b1461024057806397b09ec6146100b2578063cfed246b1461025b578063f911b82714610286575f80fd5b8062e4768b146100b25780632f865568146100d35780633261d1f2146101055780633574d4c41461012457806341976e091461013857806355f5751014610157575f80fd5b366100ae57005b5f80fd5b3480156100bd575f80fd5b506100d16100cc3660046107be565b6102a5565b005b3480156100de575f80fd5b506100f26100ed3660046107e6565b6102f3565b6040519081526020015b60405180910390f35b348015610110575f80fd5b506100d161011f3660046107be565b610558565b34801561012f575f80fd5b506100f2606e81565b348015610143575f80fd5b506100f26101523660046107e6565b6105ff565b348015610162575f80fd5b506101ab6101713660046107e6565b5f60208190529081526040902080546001820154600283015460038401546004909401546001600160a01b03938416949390921692909185565b604080516001600160a01b039687168152959094166020860152928401919091526060830152608082015260a0016100fc565b3480156101e9575f80fd5b506100f26101f83660046107e6565b60036020525f908152604090205481565b348015610214575f80fd5b50600154610228906001600160a01b031681565b6040516001600160a01b0390911681526020016100fc565b34801561024b575f80fd5b506100f2670de0b6b3a764000081565b348015610266575f80fd5b506100f26102753660046107e6565b60026020525f908152604090205481565b348015610291575f80fd5b506100d16102a0366004610806565b610667565b6001546001600160a01b031633146102d85760405162461bcd60e51b81526004016102cf90610845565b60405180910390fd5b6001600160a01b039091165f90815260026020526040902055565b6001545f906001600160a01b0316331461031f5760405162461bcd60e51b81526004016102cf90610845565b6001600160a01b0382165f90815260208190526040902060028101546103755760405162461bcd60e51b815260206004820152600b60248201526a2737903837b9b4ba34b7b760a91b60448201526064016102cf565b80545f9061038b906001600160a01b03166105ff565b826002015461039a919061087c565b60018301549091505f906103b6906001600160a01b03166105ff565b83600301546103c5919061087c565b90505f81116104005760405162461bcd60e51b8152602060048201526007602482015266139bc81919589d60ca1b60448201526064016102cf565b5f8161041484670de0b6b3a764000061087c565b61041e9190610899565b9050670de0b6b3a764000081106104835760405162461bcd60e51b815260206004820152602360248201527f4e6f74206c6971756964617461626c65202d206865616c746820666163746f72604482015262204f4b60e81b60648201526084016102cf565b6064606e8560020154610496919061087c565b6104a09190610899565b945083600201548511156104e15760405162461bcd60e51b81526020600482015260086024820152674f766572666c6f7760c01b60448201526064016102cf565b84846002015f8282546104f491906108b8565b90915550505f60038501555f1960048501558354604080518781526001600160a01b03928316602082015233928916917fbf8c93ffab42c7a8745e30d00eef080c6704962d26f0b42a0e9d9589b7417af1910160405180910390a350505050919050565b6001546001600160a01b031633146105825760405162461bcd60e51b81526004016102cf90610845565b6001600160a01b0382165f9081526002602052604081205481036105ae57670de0b6b3a76400006105c7565b6001600160a01b0383165f908152600260205260409020545b905060646105d5838361087c565b6105df9190610899565b6001600160a01b039093165f908152600260205260409020929092555050565b6001600160a01b0381165f908152600260205260408120541561063757506001600160a01b03165f9081526002602052604090205490565b5f196001600160a01b038316016106585750686c6b935b8bbd400000919050565b50670de0b6b3a7640000919050565b5f610671856105ff565b61067b908461087c565b90505f610687856105ff565b610691908461087c565b90508082116106db5760405162461bcd60e51b8152602060048201526016602482015275139bdd081bdd995c98dbdb1b185d195c985b1a5e995960521b60448201526064016102cf565b6040518060a00160405280876001600160a01b03168152602001866001600160a01b031681526020018581526020018481526020018284670de0b6b3a7640000610725919061087c565b61072f9190610899565b9052600180546001600160a01b039081165f9081526020818152604091829020855181549085166001600160a01b0319918216178255918601519481018054959094169490911693909317909155820151600282015560608201516003820155608090910151600490910155505050505050565b80356001600160a01b03811681146107b9575f80fd5b919050565b5f80604083850312156107cf575f80fd5b6107d8836107a3565b946020939093013593505050565b5f602082840312156107f6575f80fd5b6107ff826107a3565b9392505050565b5f805f8060808587031215610819575f80fd5b610822856107a3565b9350610830602086016107a3565b93969395505050506040820135916060013590565b6020808252600990820152682737ba1037bbb732b960b91b604082015260600190565b634e487b7160e01b5f52601160045260245ffd5b808202811582820484141761089357610893610868565b92915050565b5f826108b357634e487b7160e01b5f52601260045260245ffd5b500490565b818103818111156108935761089361086856fea2646970667358221220da4f9a8c4b8531160fb09f4bd14e3b6b19b423df4999cdc7a5f945ff3fbc997064736f6c63430008180033","linkReferences":{}},"methodIdentifiers":{"LIQUIDATION_BONUS()":"3574d4c4","LIQUIDATION_THRESHOLD()":"90a8ae9b","balanceOf(address)":"70a08231","getPrice(address)":"41976e09","liquidate(address)":"2f865568","manipulateOracle(address,uint256)":"3261d1f2","owner()":"8da5cb5b","positions(address)":"55f57510","prices(address)":"cfed246b","restoreOracle(address,uint256)":"97b09ec6","setPrice(address,uint256)":"00e4768b","setupVictim(address,address,uint256,uint256)":"f911b827"},"id":2}