{"abi":[{"type":"constructor","inputs":[{"name":"_timelock","type":"address","internalType":"address"},{"name":"_attacker","type":"address","internalType":"address"}],"stateMutability":"nonpayable"},{"type":"receive","stateMutability":"payable"},{"type":"function","name":"QUEUE_PERIOD","inputs":[],"outputs":[{"name":"","type":"uint256","internalType":"uint256"}],"stateMutability":"view"},{"type":"function","name":"VOTING_PERIOD","inputs":[],"outputs":[{"name":"","type":"uint256","internalType":"uint256"}],"stateMutability":"view"},{"type":"function","name":"attacker","inputs":[],"outputs":[{"name":"","type":"address","internalType":"address"}],"stateMutability":"view"},{"type":"function","name":"drainTreasury","inputs":[{"name":"token","type":"address","internalType":"address"},{"name":"to","type":"address","internalType":"address"},{"name":"amount","type":"uint256","internalType":"uint256"}],"outputs":[],"stateMutability":"nonpayable"},{"type":"function","name":"executeProposal","inputs":[{"name":"proposalId","type":"bytes32","internalType":"bytes32"}],"outputs":[],"stateMutability":"payable"},{"type":"function","name":"governor","inputs":[],"outputs":[{"name":"","type":"address","internalType":"address"}],"stateMutability":"view"},{"type":"function","name":"proposals","inputs":[{"name":"","type":"bytes32","internalType":"bytes32"}],"outputs":[{"name":"target","type":"address","internalType":"address"},{"name":"value","type":"uint256","internalType":"uint256"},{"name":"data","type":"bytes","internalType":"bytes"},{"name":"description","type":"string","internalType":"string"},{"name":"voteStart","type":"uint256","internalType":"uint256"},{"name":"voteEnd","type":"uint256","internalType":"uint256"},{"name":"executed","type":"bool","internalType":"bool"},{"name":"canceled","type":"bool","internalType":"bool"},{"name":"forVotes","type":"uint256","internalType":"uint256"},{"name":"againstVotes","type":"uint256","internalType":"uint256"},{"name":"queued","type":"bool","internalType":"bool"},{"name":"queueTime","type":"uint256","internalType":"uint256"}],"stateMutability":"view"},{"type":"function","name":"queueProposal","inputs":[{"name":"proposalId","type":"bytes32","internalType":"bytes32"}],"outputs":[],"stateMutability":"nonpayable"},{"type":"function","name":"setVotingPower","inputs":[{"name":"voter","type":"address","internalType":"address"},{"name":"power","type":"uint256","internalType":"uint256"}],"outputs":[],"stateMutability":"nonpayable"},{"type":"function","name":"submitProposal","inputs":[{"name":"target","type":"address","internalType":"address"},{"name":"value","type":"uint256","internalType":"uint256"},{"name":"data","type":"bytes","internalType":"bytes"},{"name":"description","type":"string","internalType":"string"}],"outputs":[{"name":"proposalId","type":"bytes32","internalType":"bytes32"}],"stateMutability":"nonpayable"},{"type":"function","name":"timelock","inputs":[],"outputs":[{"name":"","type":"address","internalType":"address"}],"stateMutability":"view"},{"type":"function","name":"vote","inputs":[{"name":"proposalId","type":"bytes32","internalType":"bytes32"},{"name":"support","type":"bool","internalType":"bool"}],"outputs":[],"stateMutability":"nonpayable"},{"type":"function","name":"votes","inputs":[{"name":"","type":"bytes32","internalType":"bytes32"},{"name":"","type":"address","internalType":"address"}],"outputs":[{"name":"","type":"bool","internalType":"bool"}],"stateMutability":"view"},{"type":"function","name":"votingPower","inputs":[{"name":"","type":"address","internalType":"address"}],"outputs":[{"name":"","type":"uint256","internalType":"uint256"}],"stateMutability":"view"},{"type":"event","name":"ProposalExecuted","inputs":[{"name":"proposalId","type":"bytes32","indexed":true,"internalType":"bytes32"}],"anonymous":false},{"type":"event","name":"ProposalQueued","inputs":[{"name":"proposalId","type":"bytes32","indexed":true,"internalType":"bytes32"},{"name":"eta","type":"uint256","indexed":false,"internalType":"uint256"}],"anonymous":false},{"type":"event","name":"ProposalSubmitted","inputs":[{"name":"proposalId","type":"bytes32","indexed":true,"internalType":"bytes32"},{"name":"description","type":"string","indexed":false,"internalType":"string"}],"anonymous":false},{"type":"event","name":"VoteCast","inputs":[{"name":"proposalId","type":"bytes32","indexed":true,"internalType":"bytes32"},{"name":"voter","type":"address","indexed":true,"internalType":"address"},{"name":"support","type":"bool","indexed":false,"internalType":"bool"},{"name":"power","type":"uint256","indexed":false,"internalType":"uint256"}],"anonymous":false}],"bytecode":{"object":"0x608060405234801561000f575f80fd5b506040516112ff3803806112ff83398101604081905261002e9161008a565b600380546001600160a01b039384166001600160a01b03199182161790915560058054929093169181169190911790915560048054909116301790556100bb565b80516001600160a01b0381168114610085575f80fd5b919050565b5f806040838503121561009b575f80fd5b6100a48361006f565b91506100b26020840161006f565b90509250929050565b611237806100c85f395ff3fe6080604052600436106100dc575f3560e01c80639af6dcc41161007c578063c07473f611610057578063c07473f614610280578063d33219b4146102ab578063d47aa39a146102ca578063f1f1c945146102e9575f80fd5b80639af6dcc41461022b5780639f2ce6781461024d578063b1610d7e1461026c575f80fd5b806348eb76ee116100b757806348eb76ee1461019157806374428d9b146101b05780639386775a146101cf578063980ff6c614610218575f80fd5b80630c340a24146100e7578063274b91a91461012357806332ed5b121461015a575f80fd5b366100e357005b5f80fd5b3480156100f2575f80fd5b50600454610106906001600160a01b031681565b6040516001600160a01b0390911681526020015b60405180910390f35b34801561012e575f80fd5b5061015861013d366004610cc5565b6001600160a01b039091165f90815260026020526040902055565b005b348015610165575f80fd5b50610179610174366004610ced565b610308565b60405161011a9c9b9a99989796959493929190610d51565b34801561019c575f80fd5b50600554610106906001600160a01b031681565b3480156101bb575f80fd5b506101586101ca366004610ced565b610484565b3480156101da575f80fd5b506102086101e9366004610dd8565b600160209081525f928352604080842090915290825290205460ff1681565b604051901515815260200161011a565b610158610226366004610ced565b6105c3565b348015610236575f80fd5b5061023f600581565b60405190815260200161011a565b348015610258575f80fd5b50610158610267366004610e02565b610798565b348015610277575f80fd5b5061023f600a81565b34801561028b575f80fd5b5061023f61029a366004610e34565b60026020525f908152604090205481565b3480156102b6575f80fd5b50600354610106906001600160a01b031681565b3480156102d5575f80fd5b506101586102e4366004610e54565b6109c4565b3480156102f4575f80fd5b5061023f610303366004610f14565b610af5565b5f602081905290815260409020805460018201546002830180546001600160a01b0390931693919261033990610fb6565b80601f016020809104026020016040519081016040528092919081815260200182805461036590610fb6565b80156103b05780601f10610387576101008083540402835291602001916103b0565b820191905f5260205f20905b81548152906001019060200180831161039357829003601f168201915b5050505050908060030180546103c590610fb6565b80601f01602080910402602001604051908101604052809291908181526020018280546103f190610fb6565b801561043c5780601f106104135761010080835404028352916020019161043c565b820191905f5260205f20905b81548152906001019060200180831161041f57829003601f168201915b50505050600483015460058401546006850154600786015460088701546009880154600a909801549697949693955060ff80841695610100909404811694929391929116908c565b5f818152602081905260409020600581015443116104dc5760405162461bcd60e51b815260206004820152601060248201526f159bdd1a5b99c81b9bdd08195b99195960821b60448201526064015b60405180910390fd5b80600801548160070154116105275760405162461bcd60e51b8152602060048201526011602482015270141c9bdc1bdcd85b0819195999585d1959607a1b60448201526064016104d3565b600981015460ff161561056d5760405162461bcd60e51b815260206004820152600e60248201526d105b1c9958591e481c5d595d595960921b60448201526064016104d3565b60098101805460ff1916600117905543600a820181905560405183917f65431b33ae1566469324739cd3024c5e8d7422fa2c54e71fda14b92fd5e8f1ea916105b791815260200190565b60405180910390a25050565b5f818152602081905260409020600981015460ff166106115760405162461bcd60e51b815260206004820152600a602482015269139bdd081c5d595d595960b21b60448201526064016104d3565b600581600a01546106229190610fee565b4310156106685760405162461bcd60e51b8152602060048201526014602482015273151a5b595b1bd8dac81b9bdd08195e1c1a5c995960621b60448201526064016104d3565b600681015460ff16156106b05760405162461bcd60e51b815260206004820152601060248201526f105b1c9958591e48195e1958dd5d195960821b60448201526064016104d3565b60068101805460ff191660019081179091558154908201546040515f926001600160a01b031691906106e6906002860190611013565b5f6040518083038185875af1925050503d805f8114610720576040519150601f19603f3d011682016040523d82523d5f602084013e610725565b606091505b50509050806107695760405162461bcd60e51b815260206004820152601060248201526f115e1958dd5d1a5bdb8819985a5b195960821b60448201526064016104d3565b60405183907f7b1bcf1ccf901a11589afff5504d59fd0a53780eed2a952adade0348985139e0905f90a2505050565b5f82815260208190526040902060048101544310156107ee5760405162461bcd60e51b8152602060048201526012602482015271159bdd1a5b99c81b9bdd081cdd185c9d195960721b60448201526064016104d3565b80600501544311156108315760405162461bcd60e51b815260206004820152600c60248201526b159bdd1a5b99c8195b99195960a21b60448201526064016104d3565b600681015460ff16156108795760405162461bcd60e51b815260206004820152601060248201526f105b1c9958591e48195e1958dd5d195960821b60448201526064016104d3565b5f83815260016020908152604080832033845290915290205460ff16156108d25760405162461bcd60e51b815260206004820152600d60248201526c105b1c9958591e481d9bdd1959609a1b60448201526064016104d3565b335f90815260026020526040902054806109205760405162461bcd60e51b815260206004820152600f60248201526e2737903b37ba34b733903837bbb2b960891b60448201526064016104d3565b82156109445780826007015f8282546109399190610fee565b9091555061095d9050565b80826008015f8282546109579190610fee565b90915550505b5f8481526001602081815260408084203380865290835293819020805460ff19169093179092558151861515815290810184905286917f9bc1d007e9f894b0900fab4b7e20029267e704c85851e5470c30a1e1b239e090910160405180910390a350505050565b6005546001600160a01b03163314806109dc57503330145b610a195760405162461bcd60e51b815260206004820152600e60248201526d139bdd08185d5d1a1bdc9a5e995960921b60448201526064016104d3565b6040516001600160a01b038381166024830152604482018390525f919085169060640160408051601f198184030181529181526020820180516001600160e01b031663a9059cbb60e01b17905251610a719190611085565b5f604051808303815f865af19150503d805f8114610aaa576040519150601f19603f3d011682016040523d82523d5f602084013e610aaf565b606091505b5050905080610aef5760405162461bcd60e51b815260206004820152600c60248201526b111c985a5b8819985a5b195960a21b60448201526064016104d3565b50505050565b5f84848484604051602001610b0d94939291906110a0565b604051602081830303815290604052805190602001209050604051806101800160405280866001600160a01b03168152602001858152602001848152602001838152602001438152602001600a43610b659190610fee565b81525f60208083018290526040808401839052606084018390526080840183905260a0840183905260c090930182905284825281815290829020835181546001600160a01b0319166001600160a01b03909116178155908301516001820155908201516002820190610bd7908261112f565b5060608201516003820190610bec908261112f565b506080820151600482015560a0820151600582015560c082015160068201805460e085015161ffff1990911692151561ff0019169290921761010092151583021790558201516007820155610120820151600882015561014082015160098201805460ff191691151591909117905561016090910151600a9091015560405181907f3dd04ee5c7a126dbf8fc53a9ab91c0b1630e1b385a5301272e0fce059fe4dee890610c9a9085906111ef565b60405180910390a2949350505050565b80356001600160a01b0381168114610cc0575f80fd5b919050565b5f8060408385031215610cd6575f80fd5b610cdf83610caa565b946020939093013593505050565b5f60208284031215610cfd575f80fd5b5035919050565b5f5b83811015610d1e578181015183820152602001610d06565b50505f910152565b5f8151808452610d3d816020860160208601610d04565b601f01601f19169290920160200192915050565b6001600160a01b038d168152602081018c9052610180604082018190525f90610d7c8382018e610d26565b90508281036060840152610d90818d610d26565b608084019b909b52505060a081019790975294151560c087015292151560e0860152610100850191909152610120840152151561014083015261016090910152949350505050565b5f8060408385031215610de9575f80fd5b82359150610df960208401610caa565b90509250929050565b5f8060408385031215610e13575f80fd5b8235915060208301358015158114610e29575f80fd5b809150509250929050565b5f60208284031215610e44575f80fd5b610e4d82610caa565b9392505050565b5f805f60608486031215610e66575f80fd5b610e6f84610caa565b9250610e7d60208501610caa565b9150604084013590509250925092565b634e487b7160e01b5f52604160045260245ffd5b5f67ffffffffffffffff80841115610ebb57610ebb610e8d565b604051601f8501601f19908116603f01168101908282118183101715610ee357610ee3610e8d565b81604052809350858152868686011115610efb575f80fd5b858560208301375f602087830101525050509392505050565b5f805f8060808587031215610f27575f80fd5b610f3085610caa565b935060208501359250604085013567ffffffffffffffff80821115610f53575f80fd5b818701915087601f830112610f66575f80fd5b610f7588833560208501610ea1565b93506060870135915080821115610f8a575f80fd5b508501601f81018713610f9b575f80fd5b610faa87823560208401610ea1565b91505092959194509250565b600181811c90821680610fca57607f821691505b602082108103610fe857634e487b7160e01b5f52602260045260245ffd5b50919050565b8082018082111561100d57634e487b7160e01b5f52601160045260245ffd5b92915050565b5f80835461102081610fb6565b60018281168015611038576001811461104d57611079565b60ff1984168752821515830287019450611079565b875f526020805f205f5b858110156110705781548a820152908401908201611057565b50505082870194505b50929695505050505050565b5f8251611096818460208701610d04565b9190910192915050565b60018060a01b0385168152836020820152608060408201525f6110c66080830185610d26565b82810360608401526110d88185610d26565b979650505050505050565b601f82111561112a57805f5260205f20601f840160051c810160208510156111085750805b601f840160051c820191505b81811015611127575f8155600101611114565b50505b505050565b815167ffffffffffffffff81111561114957611149610e8d565b61115d816111578454610fb6565b846110e3565b602080601f831160018114611190575f84156111795750858301515b5f19600386901b1c1916600185901b1785556111e7565b5f85815260208120601f198616915b828110156111be5788860151825594840194600190910190840161119f565b50858210156111db57878501515f19600388901b60f8161c191681555b505060018460011b0185555b505050505050565b602081525f610e4d6020830184610d2656fea264697066735822122018f50edb1f1583fd7498dc9725bd48c063fd22496db4515a37e889e9db89063364736f6c63430008180033","linkReferences":{}},"methodIdentifiers":{"QUEUE_PERIOD()":"9af6dcc4","VOTING_PERIOD()":"b1610d7e","attacker()":"48eb76ee","drainTreasury(address,address,uint256)":"d47aa39a","executeProposal(bytes32)":"980ff6c6","governor()":"0c340a24","proposals(bytes32)":"32ed5b12","queueProposal(bytes32)":"74428d9b","setVotingPower(address,uint256)":"274b91a9","submitProposal(address,uint256,bytes,string)":"f1f1c945","timelock()":"d33219b4","vote(bytes32,bool)":"9f2ce678","votes(bytes32,address)":"9386775a","votingPower(address)":"c07473f6"},"id":1}