{"abi":[{"type":"constructor","inputs":[],"stateMutability":"nonpayable"},{"type":"receive","stateMutability":"payable"},{"type":"function","name":"MIN_DELAY","inputs":[],"outputs":[{"name":"","type":"uint256","internalType":"uint256"}],"stateMutability":"view"},{"type":"function","name":"admin","inputs":[],"outputs":[{"name":"","type":"address","internalType":"address"}],"stateMutability":"view"},{"type":"function","name":"executeTransaction","inputs":[{"name":"target","type":"address","internalType":"address"},{"name":"value","type":"uint256","internalType":"uint256"},{"name":"data","type":"bytes","internalType":"bytes"},{"name":"","type":"string","internalType":"string"}],"outputs":[{"name":"","type":"bytes","internalType":"bytes"}],"stateMutability":"payable"},{"type":"function","name":"queueTransaction","inputs":[{"name":"target","type":"address","internalType":"address"},{"name":"value","type":"uint256","internalType":"uint256"},{"name":"data","type":"bytes","internalType":"bytes"},{"name":"description","type":"string","internalType":"string"}],"outputs":[{"name":"txHash","type":"bytes32","internalType":"bytes32"}],"stateMutability":"nonpayable"},{"type":"function","name":"queuedTransactions","inputs":[{"name":"","type":"bytes32","internalType":"bytes32"}],"outputs":[{"name":"","type":"bool","internalType":"bool"}],"stateMutability":"view"},{"type":"event","name":"ExecutedTransaction","inputs":[{"name":"txHash","type":"bytes32","indexed":true,"internalType":"bytes32"}],"anonymous":false},{"type":"event","name":"QueuedTransaction","inputs":[{"name":"txHash","type":"bytes32","indexed":true,"internalType":"bytes32"},{"name":"description","type":"string","indexed":false,"internalType":"string"}],"anonymous":false}],"bytecode":{"object":"0x608060405234801561000f575f80fd5b50600180546001600160a01b031916331790556105d88061002f5f395ff3fe60806040526004361061004c575f3560e01c80637fc91e92146100575780639450a544146100895780639f81aed7146100a9578063f2b06537146100bd578063f851a440146100fb575f80fd5b3661005357005b5f80fd5b348015610062575f80fd5b506100766100713660046103e9565b610132565b6040519081526020015b60405180910390f35b61009c6100973660046103e9565b610205565b60405161008091906104e5565b3480156100b4575f80fd5b50610076600181565b3480156100c8575f80fd5b506100eb6100d73660046104fe565b5f6020819052908152604090205460ff1681565b6040519015158152602001610080565b348015610106575f80fd5b5060015461011a906001600160a01b031681565b6040516001600160a01b039091168152602001610080565b6001545f906001600160a01b0316331461017f5760405162461bcd60e51b81526020600482015260096024820152682737ba1030b236b4b760b91b60448201526064015b60405180910390fd5b848484846040516020016101969493929190610515565b60408051601f1981840301815282825280516020918201205f81815291829052919020805460ff19166001179055915081907f38ef9e6ba71e95a808413c4c2bbc2a6b54ca069b20639e6d62d3d02e7e881c5d906101f59085906104e5565b60405180910390a2949350505050565b60605f85858560405160200161021d93929190610558565b60408051601f1981840301815291815281516020928301205f8181529283905291205490915060ff1661027f5760405162461bcd60e51b815260206004820152600a602482015269139bdd081c5d595d595960b21b6044820152606401610176565b5f81815260208190526040808220805460ff191690555181906001600160a01b0389169088906102b0908990610587565b5f6040518083038185875af1925050503d805f81146102ea576040519150601f19603f3d011682016040523d82523d5f602084013e6102ef565b606091505b50915091508161032d5760405162461bcd60e51b8152602060048201526009602482015268151e0819985a5b195960ba1b6044820152606401610176565b60405183907f9019992f404090d185aa44f9ac280ba44d94f7fdfcbe18aabacdecd891b5a94a905f90a2979650505050505050565b634e487b7160e01b5f52604160045260245ffd5b5f67ffffffffffffffff8084111561039057610390610362565b604051601f8501601f19908116603f011681019082821181831017156103b8576103b8610362565b816040528093508581528686860111156103d0575f80fd5b858560208301375f602087830101525050509392505050565b5f805f80608085870312156103fc575f80fd5b84356001600160a01b0381168114610412575f80fd5b935060208501359250604085013567ffffffffffffffff80821115610435575f80fd5b818701915087601f830112610448575f80fd5b61045788833560208501610376565b9350606087013591508082111561046c575f80fd5b508501601f8101871361047d575f80fd5b61048c87823560208401610376565b91505092959194509250565b5f5b838110156104b257818101518382015260200161049a565b50505f910152565b5f81518084526104d1816020860160208601610498565b601f01601f19169290920160200192915050565b602081525f6104f760208301846104ba565b9392505050565b5f6020828403121561050e575f80fd5b5035919050565b60018060a01b0385168152836020820152608060408201525f61053b60808301856104ba565b828103606084015261054d81856104ba565b979650505050505050565b60018060a01b0384168152826020820152606060408201525f61057e60608301846104ba565b95945050505050565b5f8251610598818460208701610498565b919091019291505056fea26469706673582212200316c2f345d6694ba392b888a2b668fb8f5de1348dcbc94c13d583b6828172d964736f6c63430008180033","linkReferences":{}},"methodIdentifiers":{"MIN_DELAY()":"9f81aed7","admin()":"f851a440","executeTransaction(address,uint256,bytes,string)":"9450a544","queueTransaction(address,uint256,bytes,string)":"7fc91e92","queuedTransactions(bytes32)":"f2b06537"},"id":1}