{"abi":[{"type":"constructor","inputs":[{"name":"_tokenA","type":"address","internalType":"address"},{"name":"_tokenB","type":"address","internalType":"address"},{"name":"_pair","type":"address","internalType":"address"}],"stateMutability":"nonpayable"},{"type":"receive","stateMutability":"payable"},{"type":"function","name":"getPrice","inputs":[],"outputs":[{"name":"","type":"uint256","internalType":"uint256"}],"stateMutability":"nonpayable"},{"type":"function","name":"lastUpdate","inputs":[],"outputs":[{"name":"","type":"uint256","internalType":"uint256"}],"stateMutability":"view"},{"type":"function","name":"pair","inputs":[],"outputs":[{"name":"","type":"address","internalType":"address"}],"stateMutability":"view"},{"type":"function","name":"price","inputs":[],"outputs":[{"name":"","type":"uint256","internalType":"uint256"}],"stateMutability":"view"},{"type":"function","name":"tokenA","inputs":[],"outputs":[{"name":"","type":"address","internalType":"address"}],"stateMutability":"view"},{"type":"function","name":"tokenB","inputs":[],"outputs":[{"name":"","type":"address","internalType":"address"}],"stateMutability":"view"}],"bytecode":{"object":"0x608060405234801561000f575f80fd5b5060405161039838038061039883398101604081905261002e9161008a565b5f80546001600160a01b039485166001600160a01b0319918216179091556001805493851693821693909317909255600280549190931691161790556100ca565b80516001600160a01b0381168114610085575f80fd5b919050565b5f805f6060848603121561009c575f80fd5b6100a58461006f565b92506100b36020850161006f565b91506100c16040850161006f565b90509250925092565b6102c1806100d75f395ff3fe608060405260043610610057575f3560e01c80630fc63d10146100625780635f64b55b1461009d57806398d5fdca146100bc578063a035b1fe146100de578063a8aa1b31146100f3578063c046371114610112575f80fd5b3661005e57005b5f80fd5b34801561006d575f80fd5b505f54610080906001600160a01b031681565b6040516001600160a01b0390911681526020015b60405180910390f35b3480156100a8575f80fd5b50600154610080906001600160a01b031681565b3480156100c7575f80fd5b506100d0610127565b604051908152602001610094565b3480156100e9575f80fd5b506100d060035481565b3480156100fe575f80fd5b50600254610080906001600160a01b031681565b34801561011d575f80fd5b506100d060045481565b5f805f60025f9054906101000a90046001600160a01b03166001600160a01b0316630902f1ac6040518163ffffffff1660e01b8152600401606060405180830381865afa15801561017a573d5f803e3d5ffd5b505050506040513d601f19601f8201168201806040525081019061019e91906101f7565b506001600160701b039182169350169050816101c282670de0b6b3a7640000610243565b6101cc919061026c565b6003819055426004559392505050565b80516001600160701b03811681146101f2575f80fd5b919050565b5f805f60608486031215610209575f80fd5b610212846101dc565b9250610220602085016101dc565b9150604084015163ffffffff81168114610238575f80fd5b809150509250925092565b808202811582820484141761026657634e487b7160e01b5f52601160045260245ffd5b92915050565b5f8261028657634e487b7160e01b5f52601260045260245ffd5b50049056fea264697066735822122055966e4e8a995f9133035ff1950ab9d31bb2f8c711f51fd89b4c56fe1aa830b664736f6c63430008180033","linkReferences":{}},"methodIdentifiers":{"getPrice()":"98d5fdca","lastUpdate()":"c0463711","pair()":"a8aa1b31","price()":"a035b1fe","tokenA()":"0fc63d10","tokenB()":"5f64b55b"},"id":5}